:02000002B0004C
:1040000000400B0086520B00000006000C00050269
:084010000401B41400000000DB
:04401800AC4F0B009E
:10401C00034613F8012B002AFBD1181A01387047FC
:10402C0009480A49884208B505D0094A824202D09B
:10403C00121A00F00BFF0748074A0021121A00F071
:10404C0013FF014808BD00BF40E60320EC510B00F4
:10405C00ACE60320ACE60320F0E7032070B5074E76
:10406C00074C00F0C5FDA41BA4080025AC4200D1F0
:10407C0070BD56F8043B98470135F7E7A4510B0087
:10408C00C8510B0000F013B808B500F01FF8BDE8DC
:10409C00084000F065BD00F0D9B900F0DFB9007838
:1040AC00B0FA80F04009704701230370704708B5DF
:1040BC000121072000F00CFE0121062000F008FE73
:1040CC00BDE808400121052000F002BE08B5FF2123
:1040DC00072000F00EFEFF21062000F00AFEBDE8CE
:1040EC0008400021052000F004BE000010B5074B6D
:1040FC00074A9A600024C3E90044032000F01AF92F
:10410C0021460120BDE8104000F01CB9ACE60320AC
:10411C000000FFFF08B5024B1B685B6C019308BDE8
:10412C004802030008B5024B1B685B68019308BD8D
:10413C001802030008B5024B1B685B69019308BDAC
:10414C001802030008B5024B1B685B68019308BD9D
:10415C002C02030008B5024B1B689B68019308BD39
:10416C002C02030008B5024B1B68DB68019308BDE9
:10417C002C02030008B5024B1B689B6A019308BD17
:10418C002C02030008B5024B1B689B6F019308BD02
:10419C002C02030008B5024B1B681B6A019308BD77
:1041AC002802030008B5024B1B685B6A019308BD2B
:1041BC002802030008B5024B1B689B6A019308BDDB
:1041CC002802030008B5024B1B68DB6A019308BD8B
:1041DC002802030008B5024B1B681B6B019308BD3A
:1041EC002802030008B5024B1B685B6B019308BDEA
:1041FC002802030008B5024B1B681B6C019308BD19
:10420C002802030008B5024B1B685B69019308BDCB
:10421C006402030008B5024B1B689B68019308BD40
:10422C006802030008B5024B1B68DB68019308BDEC
:10423C006802030008B5024B1B68DB69019308BDDB
:10424C003002030008B5024B1B681B6A019308BDC2
:10425C003002030008B5024B1B68DB68019308BDF4
:10426C003C02030008B5024B1B681B69019308BD97
:10427C003C02030008B5024B1B685B69019308BD47
:10428C003C02030008B5024B1B689B69019308BDF7
:10429C003C02030008B5024B1B68DB69019308BDA7
:1042AC003C02030008B5024B1B681B6A019308BD56
:1042BC003C02030008B5024B1B689B6A019308BDC6
:1042CC003C02030008B5024B1B681B6C019308BD34
:1042DC003C02030008B5024B1B681B68019308BD28
:1042EC004C02030008B5024B1B681B69019308BD07
:1042FC004C02030008B5024B1B685B69019308BDB7
:10430C004C02030008B5024B1B689B69019308BD66
:10431C004C02030008B5024B1B68DB69019308BD16
:10432C004C02030008B5024B1B681B6A019308BDC5
:10433C004C02030008B5024B1B685B68019308BD77
:10434C002002030008B5024B1B68DB6A019308BD11
:10435C002002030008B5034B1B68D3F88830019387
:10436C0008BD00002002030008B5034B1B68D3F8FE
:10437C009430019308BD00002002030008B5024BE5
:10438C001B68DB6B019308BD4402030008B5024BAC
:10439C001B685B68019308BD4002030008B5024B23
:1043AC001B689B68019308BD4002030008B5024BD3
:1043BC001B68DB68019308BD4002030008B5024B83
:1043CC001B681B69019308BD4002030008B5024B32
:1043DC001B685B69019308BD4002030008B5024BE2
:1043EC001B689B69019308BD4002030008B5024B92
:1043FC001B68DB69019308BD4002030008B5024B42
:10440C001B681B6A019308BD4002030008B5024BF0
:10441C001B681B6B019308BD4002030008B5024BDF
:10442C001B685B6B019308BD4002030008B5024B8F
:10443C001B681B6C019308BD4002030008B5024BBE
:10444C001B685B6C019308BD4002030008B5024B6E
:10445C001B681B68019308BD1C02030008B5024BC6
:10446C001B685B68019308BD1C02030008B5024B76
:10447C001B681B6C019308BD1C02030008B5024BA2
:10448C001B685B6C019308BD1C02030002480023EF
:10449C000360FFF73FBE00BFB8E603200022406870
:1044AC001146FFF7ABBF002240681146FFF7B6BFBD
:1044BC0040680022FFF7AABF4068002281F001018A
:1044CC00FFF794BF002340681A461946FFF786BFD2
:1044DC00002340681A461946FFF778BF002240684F
:1044EC001146FFF76BBF002240681146FFF756BF1D
:1044FC00406800220221FFF759BF002340681A468A
:10450C00FFF744BF024B03225A60024A1A607047FD
:10451C00BCE60320C84F0B007047F8B5064615469D
:10452C000C468F18BC4206D0336814F8011B9B68EC
:10453C0030469847F6E72846F8BD007C0022FFF786
:10454C0029BE007C0021FFF72DBE007C0021FFF767
:10455C0031BE007C0021FFF735BE007C0021FFF747
:10456C0039BE10B514210446FFF797FD204610BD47
:10457C0038B5044615464FF47A730022C4E901237A
:10458C00094B2174084623602946FFF733FEBF30E0
:10459C0008D16B69DB0705D56868FFF75FFFE86832
:1045AC00FFF75CFF204638BD04500B00704710B578
:1045BC0018210446FFF771FD204610BDF0B5037DB0
:1045CC00062B8DB00E4600F104074FF0000412D0FC
:1045DC0000F1080515F8011D0A22304600F043F9D8
:1045EC00AF42044419D0002CF4D02E21304600F0F8
:1045FC0037F90444EEE72F236A4639460A208DF832
:10460C000040FFF7FFFD6846FFF702FD33680246E6
:10461C00DB68694630469847044620460DB0F0BD2D
:10462C0010B5054B0446112240F8043B002100F064
:10463C001BFC204610BD00BF2C500B000346074A44
:10464C0010B543F8042B01F1100251F8044B43F858
:10465C00044B9142F9D10A781A7010BD2C500B0002
:10466C0010B59DF8084044EA032343EA024242EAAB
:10467C00016104234160037510BD000007B5064BB2
:10468C000360CB7800938B784A780978FFF7E8FFC2
:10469C0003B05DF804FB00BF2C500B00014B024A29
:1046AC001A607047C4E6032038500B0000234068A2
:1046BC001A46FFF76BBE406800220221FFF776BE58
:1046CC00002240681146FFF769BE0022406811467F
:1046DC00FFF774BE002340681A461946FFF776BEF2
:1046EC00002340681A461946FFF778BE406800213F
:1046FC00FFF79CBE40680021FFF7A0BE4068002277
:10470C0081F00101FFF772BE40680022FFF77EBE08
:10471C00002240681146FFF781BE00224068114616
:10472C00FFF76CBE2DE9F04395B014460D460746D5
:10473C00FFF776FF00211C220DA8009100F094FBDE
:10474C0040230C9320466B460CAA0021FFF76AFD10
:10475C00044600284BD1024601216868FFF72EFE63
:10476C000221804622466868FFF728FE009E81469B
:10477C002146002E3BD0002939D17368022B03D07F
:10478C000A2B11D0F669F4E7B8F1000FFAD0716971
:10479C0006A8043107ADFFF771FF0FCD3C1D0FC408
:1047AC002B6823704146EDE7B9F1000FEAD074692C
:1047BC00102201A800F058FB06238DF8143001AD2F
:1047CC0004F108031834186859682A4603C20833E0
:1047DC00A3421546F7D101A906A807ADFFF72EFF96
:1047EC000FCD3C1D0FC42B6823704946CAE70098B7
:1047FC00FFF710FD384615B0BDE8F083024B034AB5
:10480C001A6000225A607047C8E6032044500B001F
:10481C00F8B506460D468F180024BD420CD03368FF
:10482C0015F8011B9B6830469847031E01DB1C449E
:10483C00F3E7002C08BF1C462046F8BD13B5044610
:10484C00084659B10191FFF7E3FB23680199DB6836
:10485C000246204602B0BDE81040184702B010BD19
:10486C0003689B68184730B58BB00023012A8DF87C
:10487C00243098BF0A2209AC0D46B1FBF2F101FBC2
:10488C00125303F0FF03092B94BF30333733DBB2E1
:10489C00AA4204F8013DEFD92146FFF7CFFF0BB038
:1048AC0030BD0000014B00229A607047D0E6032017
:1048BC0010B5044608462170FFF7BCFC002363606A
:1048CC00204610BD054B02221A60054B054A9A6022
:1048DC000020C3E90000FFF72DBD00BFECE603206C
:1048EC00E0E603200000FFFF024B1A68024B1A603F
:1048FC00704700BF40E60320F0E603207047417488
:10490C00704708B5007CFFF7D5FC20EAE07008BDC5
:10491C0008B5007CFFF7A6FC20EAE07008BD08B5DE
:10492C00007CFFF7AFFC40EAE07008BD08B5007CE6
:10493C00FFF7A0FC40EAE07008BD007CFFF7AABCC2
:10494C0037B5457C04462DB1207C03B0BDE8304022
:10495C00FFF780BC007C0191FFF7ACFC00280199AB
:10496C00F2DC284603B030BD10B514210446FFF725
:10497C0094FB204610BD000010B54FF47A7304462A
:10498C00084611460022C4E90123044B236001238D
:10499C0020746374FFF796FC204610BD9C500B00EE
:1049AC00417470477047704708B50021007CFFF7D1
:1049BC00A9FC40EAE07008BD08B50121007CFFF7B6
:1049CC00A1FC40EAE07008BD08B5007CFFF792FC42
:1049DC0020EAE07008BD08B5007CFFF783FC20EAF4
:1049EC00E07008BD13B50446007C0191FFF782FC12
:1049FC000028019901DC607C20B1207CFFF78AFC47
:104A0C0020EAE07002B010BD007CFFF78BBC10B543
:104A1C0014210446FFF741FB204610BD10B54FF49E
:104A2C007A73044608460021C4E90113044B236041
:104A3C000123207463741146FFF74CFC204610BD13
:104A4C00CC500B0010B514220446002100F00CFAD7
:104A5C00204610BD10B50F4C88B003A8FFF7F2FF2D
:104A6C002178BFF35B8F11F001010FD1204601912A
:104A7C00FFF715FB019948B103AA0748FFF7CEFFD2
:104A8C002046FFF711FB054800F0DAF9024808B0A0
:104A9C0010BD00BFF4E60320F8E60320B1490B007B
:104AAC00002240681146FFF789BC0022406811467D
:104ABC00FFF7A4BC002240681146FFF7AFBC40686A
:104ACC000022FFF7A3BC4068002281F00101FFF730
:104ADC008DBC002340681A461946FFF77FBC0023A3
:104AEC0040681A461946FFF771BC0022406811460F
:104AFC00FFF754BC406800220221FFF757BC00238B
:104B0C0040681A46FFF742BC024B04225A60024A24
:104B1C001A6070470CE70320FC500B00014B186027
:104B2C00704700BF44E6032008B50B4B43B1FFF7B9
:104B3C0091FF03681B699847002801DDAFF30080E3
:104B4C00064B43B100F056F903681B6998470028DF
:104B5C0001DDAFF3008008BD000000000000000084
:104B6C0008B5FFF7E1FFFFF7E5FA014B186008BD48
:104B7C0028E703200548064A064908B5121A00F032
:104B8C0065F9054B054A1A6008BD00BF00F4032007
:104B9C0004F4032058520B0000F403201E1C279A27
:104BAC0007B5002300931A466FF07701FFF7DCFB83
:104BBC0003B05DF804FB000007B543880A2B08D04E
:104BCC00502B0BD1094B1B684BB103B05DF804EBB8
:104BDC001847FFF7E5FF03B05DF804FB00230093D3
:104BEC001A466FF07701FFF7BFFBF4E718E70320D5
:104BFC0010B512480021FFF741FC114B1A68114BFC
:104C0C009A42114B0CBF012200221A7001D0FFF7FF
:104C1C00B1FFFFF787FA044600F02EF90B4B13B1E6
:104C2C002046AFF3008000210848FFF7A7FBBDE842
:104C3C00104007480021FFF78DBB00BF294B0B002C
:104C4C0000F403201E1C279A14E703200000000028
:104C5C00C54B0B00232813B502D9002002B010BDA0
:104C6C00A0F10B03022B1AD8174C2178BFF35B8FE2
:104C7C0011F001010BD120460191FFF710FA0199B7
:104C8C0028B11248FFF714FE2046FFF70DFA0F4B20
:104C9C001878FFF7D7FA0028DFD10120DEE70128CA
:104CAC0009D800F067F80021007CFFF79BFA80F030
:104CBC000100C0B2D2E709380128EED800F09AF80A
:104CCC00007CFFF7EFFAF2E71CE7032020E7032054
:104CDC00232838B504460D460AD8FF2908D0FFF71B
:104CEC00B9FF28B129462046BDE83840FFF732BA53
:104CFC0038BD38B504460D46FFF7ACFFF0B10421C2
:104D0C002046FFF71FFA042805D1A9B22046BDE8BA
:104D1C003840FFF72FBA02212046FFF713FA02287A
:104D2C000CD12046FFF71EFA012801D0042805D12A
:104D3C0029462046BDE83840FFF724BA38BD7047F5
:104D4C0038B50A4B0360012304464361084920200F
:104D5C0000F074F8202560600549A560284600F035
:104D6C006DF8C4E90305204638BD00BF18000100EA
:104D7C0030510B0030B50E4D2978BFF35B8F11F01D
:104D8C00010487B011D12846FFF789F968B168464C
:104D9C00FFF7D6FF6A4621460648FFF7E9FB28468F
:104DAC00FFF782F9044800F04BF8024807B030BD19
:104DBC002CE7032030E703204B4D0B00704700001D
:104DCC0038B5044614252A46002100F04DF82580FC
:104DDC004025074925812846258200F02FF80449F3
:104DEC006060284600F02AF8E060204638BD00BF1D
:104DFC0030510B0030B50E4D2978BFF35B8F11F09D
:104E0C00010487B011D12846FFF749F968B101A810
:104E1C00FFF7D6FF01AA21460648FFF7ADFD28464D
:104E2C00FFF742F9044800F00BF8024807B030BD18
:104E3C0044E7032048E70320C94D0B00FFF72BB9CB
:104E4C00002301461A46184600F044B80A44914221
:104E5C0000F1FF3300D1704710B511F8014B03F886
:104E6C00014F9142F9D110BD02440346934200D147
:104E7C00704703F8011BF9E738B5104B1D68AB6B95
:104E8C000446B3B91820FFF7E1FA0246A86320B92B
:104E9C000B4B0C484221FFF7E9FA0B490B4BC0E9CD
:104EAC0000130B4B83600B23838100210120C2E98B
:104EBC000401AB6B00221C615A6138BD44E603202F
:104ECC0031510B0048510B000E33CDAB34126DE653
:104EDC00ECDE05002DE9F843DFF8B8800646D8F87B
:104EEC0000001F460D46914600F056F8254B1C68F5
:104EFC0034B9254C1C60254B13B11B68C4F88830A1
:104F0C0063681F2B07DDD8F8000000F047F84FF05E
:104F1C00FF30BDE8F8834EB3D4F8880088B91C4B39
:104F2C0023B9D8F8000000F038F8F0E74FF484709B
:104F3C00FFF78CFA0028F4D00023C0E94033C4F802
:104F4C008800636840F8239001229A4000EB8301AB
:104F5C00D0F800311343C0F80031022EC1F8807034
:104F6C0002BFD0F804311343C0F804316368D8F899
:104F7C0000005A1C0233626044F8235000F00EF813
:104F8C000020C6E7E8E703205CE7032000000000F0
:104F9C0059440B00A8E60320704770477047000087
:104FAC002D400B0069400B0091400B0095400B000D
:104FBC0000000000000000000000000007450B008E
:104FCC00FD440B00F3440B00E9440B00DD440B00E3
:104FDC00D1440B00F9460B0001470B00C5440B00F4
:104FEC00BD440B00B3440B00A9440B0031470B002C
:104FFC00000000000000000025450B006F450B0071
:10500C0047450B0027450B004F450B0057450B0040
:10501C005F450B0067450B0000000000000000001E
:10502C00C9450B00B9450B00BB450B006170700006
:10503C000000000000000000B9460B00C3460B0046
:10504C00CD460B00D7460B00E1460B00ED460B009E
:10505C00F9460B0001470B0009470B0015470B00E5
:10506C001D470B0027470B0031470B0025592D25F9
:10507C006D2D25645425483A254D3A2553257A0043
:10508C0061736374696D650000000000000000002E
:10509C0009490B0075490B004D490B001D480B00CD
:1050AC001D490B0039490B002B490B0047490B00DC
:1050BC000B490B000F490B00000000000000000022
:1050CC00B3490B001B4A0B00F1490B001D480B00A8
:1050DC00E3490B00B5490B00C5490B00154A0B0001
:1050EC00D5490B00AD490B0000000000000000008A
:1050FC000B4B0B00014B0B00F74A0B00AD4A0B009E
:10510C00EB4A0B00DF4A0B00F9460B0001470B0082
:10511C00D34A0B00CB4A0B00C14A0B00B74A0B0019
:10512C0031470B00005245454E54206D616C6C6F3D
:10513C006320737563636565646564002F746D70BB
:10514C002F6A656E6B696E732D4743432D31302D7D
:10515C00706970656C696E652D34385F3230323031
:10516C00313132345F313630363138303633392FD5
:10517C007372632F6E65776C69622F6E65776C69DD
:10518C00622F6C6962632F7374646C69622F726135
:10519C006E642E6300000000F9400B0099440B0074
:1051AC0011450B00A9460B0009480B00B1480B0038
:0C51BC00D1480B00F5480B00154B0B0010
:1051C800040000001400000003000000474E5500D2
:1051D800D1D4241F3960BF228F05A8374498041101
:0451E80093D3DB136F
:1051EC008C500B0048E6032000000000000000007B
:1051FC0000000000000000000000000000000000A3
:10520C000000000000000000000000000000000092
:10521C000000000000000000000000000000000082
:10522C000000000000000000000000000000000072
:10523C000000000000000000000000000000000062
:0C524C000000000000000000ECE7032060
:045258000000000052
:1052620000000102030405060708090A0B0C0D0ED3
:105272000F101112131415161718191A1B1C1D1EC4
:045282001F202800C1
:045286007856341210
:04000003B000401CED
:00000001FF
